


ARM Macro Assembler    Page 1 


    1 00000000         ;/*!
    2 00000000         ;    \file  startup_gd32f405.s
    3 00000000         ;    \brief start up file
    4 00000000         ;*/
    5 00000000         
    6 00000000         ;/*
    7 00000000         ;    Copyright (C) 2016 GigaDevice
    8 00000000         
    9 00000000         ;    2016-08-15, V1.0.1, firmware for GD32F4xx
   10 00000000         ;*/
   11 00000000         
   12 00000000         ; <h> Stack Configuration
   13 00000000         ;   <o> Stack Size (in Bytes) <0x0-0xFFFFFFFF:8>
   14 00000000         ; </h>
   15 00000000         
   16 00000000 00000400 
                       Stack_Size
                               EQU              0x00000400
   17 00000000         
   18 00000000                 AREA             STACK, NOINIT, READWRITE, ALIGN
=3
   19 00000000         Stack_Mem
                               SPACE            Stack_Size
   20 00000400         __initial_sp
   21 00000400         
   22 00000400         
   23 00000400         ; <h> Heap Configuration
   24 00000400         ;   <o>  Heap Size (in Bytes) <0x0-0xFFFFFFFF:8>
   25 00000400         ; </h>
   26 00000400         
   27 00000400 00000400 
                       Heap_Size
                               EQU              0x00000400
   28 00000400         
   29 00000400                 AREA             HEAP, NOINIT, READWRITE, ALIGN=
3
   30 00000000         __heap_base
   31 00000000         Heap_Mem
                               SPACE            Heap_Size
   32 00000400         __heap_limit
   33 00000400         
   34 00000400                 PRESERVE8
   35 00000400                 THUMB
   36 00000400         
   37 00000400         ;               /* reset Vector Mapped to at Address 0 *
                       /
   38 00000400                 AREA             RESET, DATA, READONLY
   39 00000000                 EXPORT           __Vectors
   40 00000000                 EXPORT           __Vectors_End
   41 00000000                 EXPORT           __Vectors_Size
   42 00000000         
   43 00000000 00000000 
                       __Vectors
                               DCD              __initial_sp ; Top of Stack
   44 00000004 00000000        DCD              Reset_Handler ; Reset Handler
   45 00000008 00000000        DCD              NMI_Handler ; NMI Handler
   46 0000000C 00000000        DCD              HardFault_Handler ; Hard Fault 
                                                            Handler
   47 00000010 00000000        DCD              MemManage_Handler 



ARM Macro Assembler    Page 2 


                                                            ; MPU Fault Handler
                                                            
   48 00000014 00000000        DCD              BusFault_Handler 
                                                            ; Bus Fault Handler
                                                            
   49 00000018 00000000        DCD              UsageFault_Handler ; Usage Faul
                                                            t Handler
   50 0000001C 00000000        DCD              0           ; Reserved
   51 00000020 00000000        DCD              0           ; Reserved
   52 00000024 00000000        DCD              0           ; Reserved
   53 00000028 00000000        DCD              0           ; Reserved
   54 0000002C 00000000        DCD              SVC_Handler ; SVCall Handler
   55 00000030 00000000        DCD              DebugMon_Handler ; Debug Monito
                                                            r Handler
   56 00000034 00000000        DCD              0           ; Reserved
   57 00000038 00000000        DCD              PendSV_Handler ; PendSV Handler
                                                            
   58 0000003C 00000000        DCD              SysTick_Handler 
                                                            ; SysTick Handler
   59 00000040         
   60 00000040         ;               /* external interrupts handler */
   61 00000040 00000000        DCD              WWDGT_IRQHandler ; 16:Window Wa
                                                            tchdog Timer
   62 00000044 00000000        DCD              LVD_IRQHandler ; 17:LVD through
                                                             EXTI Line detect
   63 00000048 00000000        DCD              TAMPER_STAMP_IRQHandler ; 18:Ta
                                                            mper and TimeStamp 
                                                            through EXTI Line d
                                                            etect
   64 0000004C 00000000        DCD              RTC_WKUP_IRQHandler ; 19:RTC Wa
                                                            keup through EXTI L
                                                            ine
   65 00000050 00000000        DCD              FMC_IRQHandler ; 20:FMC
   66 00000054 00000000        DCD              RCU_CTC_IRQHandler 
                                                            ; 21:RCU and CTC
   67 00000058 00000000        DCD              EXTI0_IRQHandler 
                                                            ; 22:EXTI Line 0
   68 0000005C 00000000        DCD              EXTI1_IRQHandler 
                                                            ; 23:EXTI Line 1
   69 00000060 00000000        DCD              EXTI2_IRQHandler 
                                                            ; 24:EXTI Line 2
   70 00000064 00000000        DCD              EXTI3_IRQHandler 
                                                            ; 25:EXTI Line 3
   71 00000068 00000000        DCD              EXTI4_IRQHandler 
                                                            ; 26:EXTI Line 4
   72 0000006C 00000000        DCD              DMA0_Channel0_IRQHandler 
                                                            ; 27:DMA0 Channel0
   73 00000070 00000000        DCD              DMA0_Channel1_IRQHandler 
                                                            ; 28:DMA0 Channel1
   74 00000074 00000000        DCD              DMA0_Channel2_IRQHandler 
                                                            ; 29:DMA0 Channel2
   75 00000078 00000000        DCD              DMA0_Channel3_IRQHandler 
                                                            ; 30:DMA0 Channel3
   76 0000007C 00000000        DCD              DMA0_Channel4_IRQHandler 
                                                            ; 31:DMA0 Channel4
   77 00000080 00000000        DCD              DMA0_Channel5_IRQHandler 
                                                            ; 32:DMA0 Channel5
   78 00000084 00000000        DCD              DMA0_Channel6_IRQHandler 
                                                            ; 33:DMA0 Channel6



ARM Macro Assembler    Page 3 


   79 00000088 00000000        DCD              ADC_IRQHandler ; 34:ADC
   80 0000008C 00000000        DCD              CAN0_TX_IRQHandler ; 35:CAN0 TX
                                                            
   81 00000090 00000000        DCD              CAN0_RX0_IRQHandler 
                                                            ; 36:CAN0 RX0
   82 00000094 00000000        DCD              CAN0_RX1_IRQHandler 
                                                            ; 37:CAN0 RX1
   83 00000098 00000000        DCD              CAN0_EWMC_IRQHandler 
                                                            ; 38:CAN0 EWMC
   84 0000009C 00000000        DCD              EXTI5_9_IRQHandler 
                                                            ; 39:EXTI5 to EXTI9
                                                            
   85 000000A0 00000000        DCD              TIMER0_BRK_TIMER8_IRQHandler ; 
                                                            40:TIMER0 Break and
                                                             TIMER8
   86 000000A4 00000000        DCD              TIMER0_UP_TIMER9_IRQHandler ; 4
                                                            1:TIMER0 Update and
                                                             TIMER9
   87 000000A8 00000000        DCD              TIMER0_TRG_CMT_TIMER10_IRQHandl
er 
                                                            ; 42:TIMER0 Trigger
                                                             and Commutation an
                                                            d TIMER10
   88 000000AC 00000000        DCD              TIMER0_CC_IRQHandler ; 43:TIMER
                                                            0 Capture Compare
   89 000000B0 00000000        DCD              TIMER1_IRQHandler ; 44:TIMER1
   90 000000B4 00000000        DCD              TIMER2_IRQHandler ; 45:TIMER2
   91 000000B8 00000000        DCD              TIMER3_IRQHandler ; 46:TIMER3
   92 000000BC 00000000        DCD              I2C0_EV_IRQHandler 
                                                            ; 47:I2C0 Event
   93 000000C0 00000000        DCD              I2C0_ER_IRQHandler 
                                                            ; 48:I2C0 Error
   94 000000C4 00000000        DCD              I2C1_EV_IRQHandler 
                                                            ; 49:I2C1 Event
   95 000000C8 00000000        DCD              I2C1_ER_IRQHandler 
                                                            ; 50:I2C1 Error
   96 000000CC 00000000        DCD              SPI0_IRQHandler ; 51:SPI0
   97 000000D0 00000000        DCD              SPI1_IRQHandler ; 52:SPI1
   98 000000D4 00000000        DCD              USART0_IRQHandler ; 53:USART0
   99 000000D8 00000000        DCD              USART1_IRQHandler ; 54:USART1
  100 000000DC 00000000        DCD              USART2_IRQHandler ; 55:USART2
  101 000000E0 00000000        DCD              EXTI10_15_IRQHandler ; 56:EXTI1
                                                            0 to EXTI15
  102 000000E4 00000000        DCD              RTC_Alarm_IRQHandler 
                                                            ; 57:RTC Alarm
  103 000000E8 00000000        DCD              USBFS_WKUP_IRQHandler 
                                                            ; 58:USBFS Wakeup
  104 000000EC 00000000        DCD              TIMER7_BRK_TIMER11_IRQHandler ;
                                                             59:TIMER7 Break an
                                                            d TIMER11
  105 000000F0 00000000        DCD              TIMER7_UP_TIMER12_IRQHandler ; 
                                                            60:TIMER7 Update an
                                                            d TIMER12
  106 000000F4 00000000        DCD              TIMER7_TRG_CMT_TIMER13_IRQHandl
er 
                                                            ; 61:TIMER7 Trigger
                                                             and Commutation an
                                                            d TIMER13
  107 000000F8 00000000        DCD              TIMER7_CC_IRQHandler ; 62:TIMER



ARM Macro Assembler    Page 4 


                                                            7 Capture Compare
  108 000000FC 00000000        DCD              DMA0_Channel7_IRQHandler 
                                                            ; 63:DMA0 Channel7
  109 00000100 00000000        DCD              0           ; 64:Reserved
  110 00000104 00000000        DCD              SDIO_IRQHandler ; 65:SDIO
  111 00000108 00000000        DCD              TIMER4_IRQHandler ; 66:TIMER4
  112 0000010C 00000000        DCD              SPI2_IRQHandler ; 67:SPI2
  113 00000110 00000000        DCD              UART3_IRQHandler ; 68:UART3
  114 00000114 00000000        DCD              UART4_IRQHandler ; 69:UART4
  115 00000118 00000000        DCD              TIMER5_DAC_IRQHandler ; 70:TIME
                                                            R5 and DAC0 DAC1 Un
                                                            derrun error
  116 0000011C 00000000        DCD              TIMER6_IRQHandler ; 71:TIMER6
  117 00000120 00000000        DCD              DMA1_Channel0_IRQHandler 
                                                            ; 72:DMA1 Channel0
  118 00000124 00000000        DCD              DMA1_Channel1_IRQHandler 
                                                            ; 73:DMA1 Channel1
  119 00000128 00000000        DCD              DMA1_Channel2_IRQHandler 
                                                            ; 74:DMA1 Channel2
  120 0000012C 00000000        DCD              DMA1_Channel3_IRQHandler 
                                                            ; 75:DMA1 Channel3
  121 00000130 00000000        DCD              DMA1_Channel4_IRQHandler 
                                                            ; 76:DMA1 Channel4
  122 00000134 00000000        DCD              0           ; 77:Reserved
  123 00000138 00000000        DCD              0           ; 78:Reserved
  124 0000013C 00000000        DCD              CAN1_TX_IRQHandler ; 79:CAN1 TX
                                                            
  125 00000140 00000000        DCD              CAN1_RX0_IRQHandler 
                                                            ; 80:CAN1 RX0
  126 00000144 00000000        DCD              CAN1_RX1_IRQHandler 
                                                            ; 81:CAN1 RX1
  127 00000148 00000000        DCD              CAN1_EWMC_IRQHandler 
                                                            ; 82:CAN1 EWMC
  128 0000014C 00000000        DCD              USBFS_IRQHandler ; 83:USBFS
  129 00000150 00000000        DCD              DMA1_Channel5_IRQHandler 
                                                            ; 84:DMA1 Channel5
  130 00000154 00000000        DCD              DMA1_Channel6_IRQHandler 
                                                            ; 85:DMA1 Channel6
  131 00000158 00000000        DCD              DMA1_Channel7_IRQHandler 
                                                            ; 86:DMA1 Channel7
  132 0000015C 00000000        DCD              USART5_IRQHandler ; 87:USART5
  133 00000160 00000000        DCD              I2C2_EV_IRQHandler 
                                                            ; 88:I2C2 Event
  134 00000164 00000000        DCD              I2C2_ER_IRQHandler 
                                                            ; 89:I2C2 Error
  135 00000168 00000000        DCD              USBHS_EP1_Out_IRQHandler ; 90:U
                                                            SBHS Endpoint 1 Out
                                                             
  136 0000016C 00000000        DCD              USBHS_EP1_In_IRQHandler ; 91:US
                                                            BHS Endpoint 1 in
  137 00000170 00000000        DCD              USBHS_WKUP_IRQHandler ; 92:USBH
                                                            S Wakeup through EX
                                                            TI Line
  138 00000174 00000000        DCD              USBHS_IRQHandler ; 93:USBHS
  139 00000178 00000000        DCD              DCI_IRQHandler ; 94:DCI
  140 0000017C 00000000        DCD              0           ; 95:Reserved
  141 00000180 00000000        DCD              TRNG_IRQHandler ; 96:TRNG
  142 00000184 00000000        DCD              FPU_IRQHandler ; 97:FPU
  143 00000188         



ARM Macro Assembler    Page 5 


  144 00000188         __Vectors_End
  145 00000188         
  146 00000188 00000188 
                       __Vectors_Size
                               EQU              __Vectors_End - __Vectors
  147 00000188         
  148 00000188                 AREA             |.text|, CODE, READONLY
  149 00000000         
  150 00000000         ;/* reset Handler */
  151 00000000         Reset_Handler
                               PROC
  152 00000000                 EXPORT           Reset_Handler                  
   [WEAK]
  153 00000000                 IMPORT           SystemInit
  154 00000000                 IMPORT           __main
  155 00000000 4806            LDR              R0, =SystemInit
  156 00000002 4780            BLX              R0
  157 00000004 4806            LDR              R0, =__main
  158 00000006 4700            BX               R0
  159 00000008                 ENDP
  160 00000008         
  161 00000008         ;/* dummy Exception Handlers */
  162 00000008         NMI_Handler
                               PROC
  163 00000008                 EXPORT           NMI_Handler                    
   [WEAK]
  164 00000008 E7FE            B                .
  165 0000000A                 ENDP
  167 0000000A         HardFault_Handler
                               PROC
  168 0000000A                 EXPORT           HardFault_Handler              
   [WEAK]
  169 0000000A E7FE            B                .
  170 0000000C                 ENDP
  172 0000000C         MemManage_Handler
                               PROC
  173 0000000C                 EXPORT           MemManage_Handler              
   [WEAK]
  174 0000000C E7FE            B                .
  175 0000000E                 ENDP
  177 0000000E         BusFault_Handler
                               PROC
  178 0000000E                 EXPORT           BusFault_Handler               
   [WEAK]
  179 0000000E E7FE            B                .
  180 00000010                 ENDP
  182 00000010         UsageFault_Handler
                               PROC
  183 00000010                 EXPORT           UsageFault_Handler             
   [WEAK]
  184 00000010 E7FE            B                .
  185 00000012                 ENDP
  186 00000012         SVC_Handler
                               PROC
  187 00000012                 EXPORT           SVC_Handler                    
   [WEAK]
  188 00000012 E7FE            B                .
  189 00000014                 ENDP
  191 00000014         DebugMon_Handler



ARM Macro Assembler    Page 6 


                               PROC
  192 00000014                 EXPORT           DebugMon_Handler               
   [WEAK]
  193 00000014 E7FE            B                .
  194 00000016                 ENDP
  196 00000016         PendSV_Handler
                               PROC
  197 00000016                 EXPORT           PendSV_Handler                 
   [WEAK]
  198 00000016 E7FE            B                .
  199 00000018                 ENDP
  201 00000018         SysTick_Handler
                               PROC
  202 00000018                 EXPORT           SysTick_Handler                
   [WEAK]
  203 00000018 E7FE            B                .
  204 0000001A                 ENDP
  205 0000001A         
  206 0000001A         Default_Handler
                               PROC
  207 0000001A         ;               /* external interrupts handler */
  208 0000001A                 EXPORT           WWDGT_IRQHandler               
   [WEAK]
  209 0000001A                 EXPORT           LVD_IRQHandler                 
   [WEAK]
  210 0000001A                 EXPORT           TAMPER_STAMP_IRQHandler        
   [WEAK]
  211 0000001A                 EXPORT           RTC_WKUP_IRQHandler            
   [WEAK]
  212 0000001A                 EXPORT           FMC_IRQHandler                 
   [WEAK]
  213 0000001A                 EXPORT           RCU_CTC_IRQHandler             
   [WEAK]
  214 0000001A                 EXPORT           EXTI0_IRQHandler               
   [WEAK]
  215 0000001A                 EXPORT           EXTI1_IRQHandler               
   [WEAK]
  216 0000001A                 EXPORT           EXTI2_IRQHandler               
   [WEAK]
  217 0000001A                 EXPORT           EXTI3_IRQHandler               
   [WEAK]
  218 0000001A                 EXPORT           EXTI4_IRQHandler               
   [WEAK]
  219 0000001A                 EXPORT           DMA0_Channel0_IRQHandler       
   [WEAK]
  220 0000001A                 EXPORT           DMA0_Channel1_IRQHandler       
   [WEAK]
  221 0000001A                 EXPORT           DMA0_Channel2_IRQHandler       
   [WEAK]
  222 0000001A                 EXPORT           DMA0_Channel3_IRQHandler       
   [WEAK]
  223 0000001A                 EXPORT           DMA0_Channel4_IRQHandler       
   [WEAK]
  224 0000001A                 EXPORT           DMA0_Channel5_IRQHandler       
   [WEAK]
  225 0000001A                 EXPORT           DMA0_Channel6_IRQHandler       
   [WEAK]
  226 0000001A                 EXPORT           ADC_IRQHandler                 
   [WEAK]



ARM Macro Assembler    Page 7 


  227 0000001A                 EXPORT           CAN0_TX_IRQHandler             
   [WEAK]
  228 0000001A                 EXPORT           CAN0_RX0_IRQHandler            
   [WEAK]
  229 0000001A                 EXPORT           CAN0_RX1_IRQHandler            
   [WEAK]
  230 0000001A                 EXPORT           CAN0_EWMC_IRQHandler           
   [WEAK]
  231 0000001A                 EXPORT           EXTI5_9_IRQHandler             
   [WEAK]
  232 0000001A                 EXPORT           TIMER0_BRK_TIMER8_IRQHandler   
   [WEAK]
  233 0000001A                 EXPORT           TIMER0_UP_TIMER9_IRQHandler    
   [WEAK]
  234 0000001A                 EXPORT           TIMER0_TRG_CMT_TIMER10_IRQHandl
er [WEAK]
  235 0000001A                 EXPORT           TIMER0_CC_IRQHandler           
   [WEAK]
  236 0000001A                 EXPORT           TIMER1_IRQHandler              
   [WEAK]
  237 0000001A                 EXPORT           TIMER2_IRQHandler              
   [WEAK]
  238 0000001A                 EXPORT           TIMER3_IRQHandler              
   [WEAK]
  239 0000001A                 EXPORT           I2C0_EV_IRQHandler             
   [WEAK]
  240 0000001A                 EXPORT           I2C0_ER_IRQHandler             
   [WEAK]
  241 0000001A                 EXPORT           I2C1_EV_IRQHandler             
   [WEAK]
  242 0000001A                 EXPORT           I2C1_ER_IRQHandler             
   [WEAK]
  243 0000001A                 EXPORT           SPI0_IRQHandler                
   [WEAK]
  244 0000001A                 EXPORT           SPI1_IRQHandler                
   [WEAK]
  245 0000001A                 EXPORT           USART0_IRQHandler              
   [WEAK]
  246 0000001A                 EXPORT           USART1_IRQHandler              
   [WEAK]
  247 0000001A                 EXPORT           USART2_IRQHandler              
   [WEAK]
  248 0000001A                 EXPORT           EXTI10_15_IRQHandler           
   [WEAK]
  249 0000001A                 EXPORT           RTC_Alarm_IRQHandler           
   [WEAK]
  250 0000001A                 EXPORT           USBFS_WKUP_IRQHandler          
   [WEAK]
  251 0000001A                 EXPORT           TIMER7_BRK_TIMER11_IRQHandler  
   [WEAK]
  252 0000001A                 EXPORT           TIMER7_UP_TIMER12_IRQHandler   
   [WEAK]
  253 0000001A                 EXPORT           TIMER7_TRG_CMT_TIMER13_IRQHandl
er [WEAK]
  254 0000001A                 EXPORT           TIMER7_CC_IRQHandler           
   [WEAK]
  255 0000001A                 EXPORT           DMA0_Channel7_IRQHandler       
   [WEAK]
  256 0000001A                 EXPORT           SDIO_IRQHandler                



ARM Macro Assembler    Page 8 


   [WEAK]
  257 0000001A                 EXPORT           TIMER4_IRQHandler              
   [WEAK]
  258 0000001A                 EXPORT           SPI2_IRQHandler                
   [WEAK]
  259 0000001A                 EXPORT           UART3_IRQHandler               
   [WEAK]
  260 0000001A                 EXPORT           UART4_IRQHandler               
   [WEAK]
  261 0000001A                 EXPORT           TIMER5_DAC_IRQHandler          
   [WEAK]
  262 0000001A                 EXPORT           TIMER6_IRQHandler              
   [WEAK]
  263 0000001A                 EXPORT           DMA1_Channel0_IRQHandler       
   [WEAK]
  264 0000001A                 EXPORT           DMA1_Channel1_IRQHandler       
   [WEAK]
  265 0000001A                 EXPORT           DMA1_Channel2_IRQHandler       
   [WEAK]
  266 0000001A                 EXPORT           DMA1_Channel3_IRQHandler       
   [WEAK]
  267 0000001A                 EXPORT           DMA1_Channel4_IRQHandler       
   [WEAK]
  268 0000001A                 EXPORT           CAN1_TX_IRQHandler             
   [WEAK]
  269 0000001A                 EXPORT           CAN1_RX0_IRQHandler            
   [WEAK]
  270 0000001A                 EXPORT           CAN1_RX1_IRQHandler            
   [WEAK]
  271 0000001A                 EXPORT           CAN1_EWMC_IRQHandler           
   [WEAK]
  272 0000001A                 EXPORT           USBFS_IRQHandler               
   [WEAK]
  273 0000001A                 EXPORT           DMA1_Channel5_IRQHandler       
   [WEAK]
  274 0000001A                 EXPORT           DMA1_Channel6_IRQHandler       
   [WEAK]
  275 0000001A                 EXPORT           DMA1_Channel7_IRQHandler       
   [WEAK]
  276 0000001A                 EXPORT           USART5_IRQHandler              
   [WEAK]
  277 0000001A                 EXPORT           I2C2_EV_IRQHandler             
   [WEAK]
  278 0000001A                 EXPORT           I2C2_ER_IRQHandler             
   [WEAK]
  279 0000001A                 EXPORT           USBHS_EP1_Out_IRQHandler       
   [WEAK]
  280 0000001A                 EXPORT           USBHS_EP1_In_IRQHandler        
   [WEAK]
  281 0000001A                 EXPORT           USBHS_WKUP_IRQHandler          
   [WEAK]
  282 0000001A                 EXPORT           USBHS_IRQHandler               
   [WEAK]
  283 0000001A                 EXPORT           DCI_IRQHandler                 
   [WEAK]
  284 0000001A                 EXPORT           TRNG_IRQHandler                
   [WEAK]
  285 0000001A                 EXPORT           FPU_IRQHandler                 
   [WEAK]



ARM Macro Assembler    Page 9 


  286 0000001A         
  287 0000001A         ;/* external interrupts handler */
  288 0000001A         WWDGT_IRQHandler
  289 0000001A         LVD_IRQHandler
  290 0000001A         TAMPER_STAMP_IRQHandler
  291 0000001A         RTC_WKUP_IRQHandler
  292 0000001A         FMC_IRQHandler
  293 0000001A         RCU_CTC_IRQHandler
  294 0000001A         EXTI0_IRQHandler
  295 0000001A         EXTI1_IRQHandler
  296 0000001A         EXTI2_IRQHandler
  297 0000001A         EXTI3_IRQHandler
  298 0000001A         EXTI4_IRQHandler
  299 0000001A         DMA0_Channel0_IRQHandler
  300 0000001A         DMA0_Channel1_IRQHandler
  301 0000001A         DMA0_Channel2_IRQHandler
  302 0000001A         DMA0_Channel3_IRQHandler
  303 0000001A         DMA0_Channel4_IRQHandler
  304 0000001A         DMA0_Channel5_IRQHandler
  305 0000001A         DMA0_Channel6_IRQHandler
  306 0000001A         ADC_IRQHandler
  307 0000001A         CAN0_TX_IRQHandler
  308 0000001A         CAN0_RX0_IRQHandler
  309 0000001A         CAN0_RX1_IRQHandler
  310 0000001A         CAN0_EWMC_IRQHandler
  311 0000001A         EXTI5_9_IRQHandler
  312 0000001A         TIMER0_BRK_TIMER8_IRQHandler
  313 0000001A         TIMER0_UP_TIMER9_IRQHandler
  314 0000001A         TIMER0_TRG_CMT_TIMER10_IRQHandler
  315 0000001A         TIMER0_CC_IRQHandler
  316 0000001A         TIMER1_IRQHandler
  317 0000001A         TIMER2_IRQHandler
  318 0000001A         TIMER3_IRQHandler
  319 0000001A         I2C0_EV_IRQHandler
  320 0000001A         I2C0_ER_IRQHandler
  321 0000001A         I2C1_EV_IRQHandler
  322 0000001A         I2C1_ER_IRQHandler
  323 0000001A         SPI0_IRQHandler
  324 0000001A         SPI1_IRQHandler
  325 0000001A         USART0_IRQHandler
  326 0000001A         USART1_IRQHandler
  327 0000001A         USART2_IRQHandler
  328 0000001A         EXTI10_15_IRQHandler
  329 0000001A         RTC_Alarm_IRQHandler
  330 0000001A         USBFS_WKUP_IRQHandler
  331 0000001A         TIMER7_BRK_TIMER11_IRQHandler
  332 0000001A         TIMER7_UP_TIMER12_IRQHandler
  333 0000001A         TIMER7_TRG_CMT_TIMER13_IRQHandler
  334 0000001A         TIMER7_CC_IRQHandler
  335 0000001A         DMA0_Channel7_IRQHandler
  336 0000001A         SDIO_IRQHandler
  337 0000001A         TIMER4_IRQHandler
  338 0000001A         SPI2_IRQHandler
  339 0000001A         UART3_IRQHandler
  340 0000001A         UART4_IRQHandler
  341 0000001A         TIMER5_DAC_IRQHandler
  342 0000001A         TIMER6_IRQHandler
  343 0000001A         DMA1_Channel0_IRQHandler
  344 0000001A         DMA1_Channel1_IRQHandler



ARM Macro Assembler    Page 10 


  345 0000001A         DMA1_Channel2_IRQHandler
  346 0000001A         DMA1_Channel3_IRQHandler
  347 0000001A         DMA1_Channel4_IRQHandler
  348 0000001A         CAN1_TX_IRQHandler
  349 0000001A         CAN1_RX0_IRQHandler
  350 0000001A         CAN1_RX1_IRQHandler
  351 0000001A         CAN1_EWMC_IRQHandler
  352 0000001A         USBFS_IRQHandler
  353 0000001A         DMA1_Channel5_IRQHandler
  354 0000001A         DMA1_Channel6_IRQHandler
  355 0000001A         DMA1_Channel7_IRQHandler
  356 0000001A         USART5_IRQHandler
  357 0000001A         I2C2_EV_IRQHandler
  358 0000001A         I2C2_ER_IRQHandler
  359 0000001A         USBHS_EP1_Out_IRQHandler
  360 0000001A         USBHS_EP1_In_IRQHandler
  361 0000001A         USBHS_WKUP_IRQHandler
  362 0000001A         USBHS_IRQHandler
  363 0000001A         DCI_IRQHandler
  364 0000001A         TRNG_IRQHandler
  365 0000001A         FPU_IRQHandler
  366 0000001A         
  367 0000001A E7FE            B                .
  368 0000001C                 ENDP
  369 0000001C         
  370 0000001C                 ALIGN
  371 0000001C         
  372 0000001C         ; user Initial Stack & Heap
  373 0000001C         
  374 0000001C                 IF               :DEF:__MICROLIB
  375 0000001C         
  376 0000001C                 EXPORT           __initial_sp
  377 0000001C                 EXPORT           __heap_base
  378 0000001C                 EXPORT           __heap_limit
  379 0000001C         
  380 0000001C                 ELSE
  395                          ENDIF
  396 0000001C         
  397 0000001C                 END
              00000000 
              00000000 
Command Line: --debug --xref --diag_suppress=9931 --cpu=Cortex-M4.fp.sp --apcs=
interwork --depend=.\objects\startup_gd32f405.d -o.\objects\startup_gd32f405.o 
-IF:\KEIL5\GigaDevice\GD32F4xx_DFP\2.1.0\Device\F4XX\Include --predefine="__EVA
L SETA 1" --predefine="__MICROLIB SETA 1" --predefine="__UVISION_VERSION SETA 5
34" --predefine="GD32F405 SETA 1" --list=.\listings\startup_gd32f405.lst ..\STA
RTUP\startup_gd32f405.s



ARM Macro Assembler    Page 1 Alphabetic symbol ordering
Relocatable symbols

STACK 00000000

Symbol: STACK
   Definitions
      At line 18 in file ..\STARTUP\startup_gd32f405.s
   Uses
      None
Comment: STACK unused
Stack_Mem 00000000

Symbol: Stack_Mem
   Definitions
      At line 19 in file ..\STARTUP\startup_gd32f405.s
   Uses
      None
Comment: Stack_Mem unused
__initial_sp 00000400

Symbol: __initial_sp
   Definitions
      At line 20 in file ..\STARTUP\startup_gd32f405.s
   Uses
      At line 43 in file ..\STARTUP\startup_gd32f405.s
      At line 376 in file ..\STARTUP\startup_gd32f405.s

3 symbols



ARM Macro Assembler    Page 1 Alphabetic symbol ordering
Relocatable symbols

HEAP 00000000

Symbol: HEAP
   Definitions
      At line 29 in file ..\STARTUP\startup_gd32f405.s
   Uses
      None
Comment: HEAP unused
Heap_Mem 00000000

Symbol: Heap_Mem
   Definitions
      At line 31 in file ..\STARTUP\startup_gd32f405.s
   Uses
      None
Comment: Heap_Mem unused
__heap_base 00000000

Symbol: __heap_base
   Definitions
      At line 30 in file ..\STARTUP\startup_gd32f405.s
   Uses
      At line 377 in file ..\STARTUP\startup_gd32f405.s
Comment: __heap_base used once
__heap_limit 00000400

Symbol: __heap_limit
   Definitions
      At line 32 in file ..\STARTUP\startup_gd32f405.s
   Uses
      At line 378 in file ..\STARTUP\startup_gd32f405.s
Comment: __heap_limit used once
4 symbols



ARM Macro Assembler    Page 1 Alphabetic symbol ordering
Relocatable symbols

RESET 00000000

Symbol: RESET
   Definitions
      At line 38 in file ..\STARTUP\startup_gd32f405.s
   Uses
      None
Comment: RESET unused
__Vectors 00000000

Symbol: __Vectors
   Definitions
      At line 43 in file ..\STARTUP\startup_gd32f405.s
   Uses
      At line 39 in file ..\STARTUP\startup_gd32f405.s
      At line 146 in file ..\STARTUP\startup_gd32f405.s

__Vectors_End 00000188

Symbol: __Vectors_End
   Definitions
      At line 144 in file ..\STARTUP\startup_gd32f405.s
   Uses
      At line 40 in file ..\STARTUP\startup_gd32f405.s
      At line 146 in file ..\STARTUP\startup_gd32f405.s

3 symbols



ARM Macro Assembler    Page 1 Alphabetic symbol ordering
Relocatable symbols

.text 00000000

Symbol: .text
   Definitions
      At line 148 in file ..\STARTUP\startup_gd32f405.s
   Uses
      None
Comment: .text unused
ADC_IRQHandler 0000001A

Symbol: ADC_IRQHandler
   Definitions
      At line 306 in file ..\STARTUP\startup_gd32f405.s
   Uses
      At line 79 in file ..\STARTUP\startup_gd32f405.s
      At line 226 in file ..\STARTUP\startup_gd32f405.s

BusFault_Handler 0000000E

Symbol: BusFault_Handler
   Definitions
      At line 177 in file ..\STARTUP\startup_gd32f405.s
   Uses
      At line 48 in file ..\STARTUP\startup_gd32f405.s
      At line 178 in file ..\STARTUP\startup_gd32f405.s

CAN0_EWMC_IRQHandler 0000001A

Symbol: CAN0_EWMC_IRQHandler
   Definitions
      At line 310 in file ..\STARTUP\startup_gd32f405.s
   Uses
      At line 83 in file ..\STARTUP\startup_gd32f405.s
      At line 230 in file ..\STARTUP\startup_gd32f405.s

CAN0_RX0_IRQHandler 0000001A

Symbol: CAN0_RX0_IRQHandler
   Definitions
      At line 308 in file ..\STARTUP\startup_gd32f405.s
   Uses
      At line 81 in file ..\STARTUP\startup_gd32f405.s
      At line 228 in file ..\STARTUP\startup_gd32f405.s

CAN0_RX1_IRQHandler 0000001A

Symbol: CAN0_RX1_IRQHandler
   Definitions
      At line 309 in file ..\STARTUP\startup_gd32f405.s
   Uses
      At line 82 in file ..\STARTUP\startup_gd32f405.s
      At line 229 in file ..\STARTUP\startup_gd32f405.s

CAN0_TX_IRQHandler 0000001A

Symbol: CAN0_TX_IRQHandler
   Definitions
      At line 307 in file ..\STARTUP\startup_gd32f405.s
   Uses



ARM Macro Assembler    Page 2 Alphabetic symbol ordering
Relocatable symbols

      At line 80 in file ..\STARTUP\startup_gd32f405.s
      At line 227 in file ..\STARTUP\startup_gd32f405.s

CAN1_EWMC_IRQHandler 0000001A

Symbol: CAN1_EWMC_IRQHandler
   Definitions
      At line 351 in file ..\STARTUP\startup_gd32f405.s
   Uses
      At line 127 in file ..\STARTUP\startup_gd32f405.s
      At line 271 in file ..\STARTUP\startup_gd32f405.s

CAN1_RX0_IRQHandler 0000001A

Symbol: CAN1_RX0_IRQHandler
   Definitions
      At line 349 in file ..\STARTUP\startup_gd32f405.s
   Uses
      At line 125 in file ..\STARTUP\startup_gd32f405.s
      At line 269 in file ..\STARTUP\startup_gd32f405.s

CAN1_RX1_IRQHandler 0000001A

Symbol: CAN1_RX1_IRQHandler
   Definitions
      At line 350 in file ..\STARTUP\startup_gd32f405.s
   Uses
      At line 126 in file ..\STARTUP\startup_gd32f405.s
      At line 270 in file ..\STARTUP\startup_gd32f405.s

CAN1_TX_IRQHandler 0000001A

Symbol: CAN1_TX_IRQHandler
   Definitions
      At line 348 in file ..\STARTUP\startup_gd32f405.s
   Uses
      At line 124 in file ..\STARTUP\startup_gd32f405.s
      At line 268 in file ..\STARTUP\startup_gd32f405.s

DCI_IRQHandler 0000001A

Symbol: DCI_IRQHandler
   Definitions
      At line 363 in file ..\STARTUP\startup_gd32f405.s
   Uses
      At line 139 in file ..\STARTUP\startup_gd32f405.s
      At line 283 in file ..\STARTUP\startup_gd32f405.s

DMA0_Channel0_IRQHandler 0000001A

Symbol: DMA0_Channel0_IRQHandler
   Definitions
      At line 299 in file ..\STARTUP\startup_gd32f405.s
   Uses
      At line 72 in file ..\STARTUP\startup_gd32f405.s
      At line 219 in file ..\STARTUP\startup_gd32f405.s

DMA0_Channel1_IRQHandler 0000001A




ARM Macro Assembler    Page 3 Alphabetic symbol ordering
Relocatable symbols

Symbol: DMA0_Channel1_IRQHandler
   Definitions
      At line 300 in file ..\STARTUP\startup_gd32f405.s
   Uses
      At line 73 in file ..\STARTUP\startup_gd32f405.s
      At line 220 in file ..\STARTUP\startup_gd32f405.s

DMA0_Channel2_IRQHandler 0000001A

Symbol: DMA0_Channel2_IRQHandler
   Definitions
      At line 301 in file ..\STARTUP\startup_gd32f405.s
   Uses
      At line 74 in file ..\STARTUP\startup_gd32f405.s
      At line 221 in file ..\STARTUP\startup_gd32f405.s

DMA0_Channel3_IRQHandler 0000001A

Symbol: DMA0_Channel3_IRQHandler
   Definitions
      At line 302 in file ..\STARTUP\startup_gd32f405.s
   Uses
      At line 75 in file ..\STARTUP\startup_gd32f405.s
      At line 222 in file ..\STARTUP\startup_gd32f405.s

DMA0_Channel4_IRQHandler 0000001A

Symbol: DMA0_Channel4_IRQHandler
   Definitions
      At line 303 in file ..\STARTUP\startup_gd32f405.s
   Uses
      At line 76 in file ..\STARTUP\startup_gd32f405.s
      At line 223 in file ..\STARTUP\startup_gd32f405.s

DMA0_Channel5_IRQHandler 0000001A

Symbol: DMA0_Channel5_IRQHandler
   Definitions
      At line 304 in file ..\STARTUP\startup_gd32f405.s
   Uses
      At line 77 in file ..\STARTUP\startup_gd32f405.s
      At line 224 in file ..\STARTUP\startup_gd32f405.s

DMA0_Channel6_IRQHandler 0000001A

Symbol: DMA0_Channel6_IRQHandler
   Definitions
      At line 305 in file ..\STARTUP\startup_gd32f405.s
   Uses
      At line 78 in file ..\STARTUP\startup_gd32f405.s
      At line 225 in file ..\STARTUP\startup_gd32f405.s

DMA0_Channel7_IRQHandler 0000001A

Symbol: DMA0_Channel7_IRQHandler
   Definitions
      At line 335 in file ..\STARTUP\startup_gd32f405.s
   Uses
      At line 108 in file ..\STARTUP\startup_gd32f405.s



ARM Macro Assembler    Page 4 Alphabetic symbol ordering
Relocatable symbols

      At line 255 in file ..\STARTUP\startup_gd32f405.s

DMA1_Channel0_IRQHandler 0000001A

Symbol: DMA1_Channel0_IRQHandler
   Definitions
      At line 343 in file ..\STARTUP\startup_gd32f405.s
   Uses
      At line 117 in file ..\STARTUP\startup_gd32f405.s
      At line 263 in file ..\STARTUP\startup_gd32f405.s

DMA1_Channel1_IRQHandler 0000001A

Symbol: DMA1_Channel1_IRQHandler
   Definitions
      At line 344 in file ..\STARTUP\startup_gd32f405.s
   Uses
      At line 118 in file ..\STARTUP\startup_gd32f405.s
      At line 264 in file ..\STARTUP\startup_gd32f405.s

DMA1_Channel2_IRQHandler 0000001A

Symbol: DMA1_Channel2_IRQHandler
   Definitions
      At line 345 in file ..\STARTUP\startup_gd32f405.s
   Uses
      At line 119 in file ..\STARTUP\startup_gd32f405.s
      At line 265 in file ..\STARTUP\startup_gd32f405.s

DMA1_Channel3_IRQHandler 0000001A

Symbol: DMA1_Channel3_IRQHandler
   Definitions
      At line 346 in file ..\STARTUP\startup_gd32f405.s
   Uses
      At line 120 in file ..\STARTUP\startup_gd32f405.s
      At line 266 in file ..\STARTUP\startup_gd32f405.s

DMA1_Channel4_IRQHandler 0000001A

Symbol: DMA1_Channel4_IRQHandler
   Definitions
      At line 347 in file ..\STARTUP\startup_gd32f405.s
   Uses
      At line 121 in file ..\STARTUP\startup_gd32f405.s
      At line 267 in file ..\STARTUP\startup_gd32f405.s

DMA1_Channel5_IRQHandler 0000001A

Symbol: DMA1_Channel5_IRQHandler
   Definitions
      At line 353 in file ..\STARTUP\startup_gd32f405.s
   Uses
      At line 129 in file ..\STARTUP\startup_gd32f405.s
      At line 273 in file ..\STARTUP\startup_gd32f405.s

DMA1_Channel6_IRQHandler 0000001A

Symbol: DMA1_Channel6_IRQHandler



ARM Macro Assembler    Page 5 Alphabetic symbol ordering
Relocatable symbols

   Definitions
      At line 354 in file ..\STARTUP\startup_gd32f405.s
   Uses
      At line 130 in file ..\STARTUP\startup_gd32f405.s
      At line 274 in file ..\STARTUP\startup_gd32f405.s

DMA1_Channel7_IRQHandler 0000001A

Symbol: DMA1_Channel7_IRQHandler
   Definitions
      At line 355 in file ..\STARTUP\startup_gd32f405.s
   Uses
      At line 131 in file ..\STARTUP\startup_gd32f405.s
      At line 275 in file ..\STARTUP\startup_gd32f405.s

DebugMon_Handler 00000014

Symbol: DebugMon_Handler
   Definitions
      At line 191 in file ..\STARTUP\startup_gd32f405.s
   Uses
      At line 55 in file ..\STARTUP\startup_gd32f405.s
      At line 192 in file ..\STARTUP\startup_gd32f405.s

Default_Handler 0000001A

Symbol: Default_Handler
   Definitions
      At line 206 in file ..\STARTUP\startup_gd32f405.s
   Uses
      None
Comment: Default_Handler unused
EXTI0_IRQHandler 0000001A

Symbol: EXTI0_IRQHandler
   Definitions
      At line 294 in file ..\STARTUP\startup_gd32f405.s
   Uses
      At line 67 in file ..\STARTUP\startup_gd32f405.s
      At line 214 in file ..\STARTUP\startup_gd32f405.s

EXTI10_15_IRQHandler 0000001A

Symbol: EXTI10_15_IRQHandler
   Definitions
      At line 328 in file ..\STARTUP\startup_gd32f405.s
   Uses
      At line 101 in file ..\STARTUP\startup_gd32f405.s
      At line 248 in file ..\STARTUP\startup_gd32f405.s

EXTI1_IRQHandler 0000001A

Symbol: EXTI1_IRQHandler
   Definitions
      At line 295 in file ..\STARTUP\startup_gd32f405.s
   Uses
      At line 68 in file ..\STARTUP\startup_gd32f405.s
      At line 215 in file ..\STARTUP\startup_gd32f405.s




ARM Macro Assembler    Page 6 Alphabetic symbol ordering
Relocatable symbols

EXTI2_IRQHandler 0000001A

Symbol: EXTI2_IRQHandler
   Definitions
      At line 296 in file ..\STARTUP\startup_gd32f405.s
   Uses
      At line 69 in file ..\STARTUP\startup_gd32f405.s
      At line 216 in file ..\STARTUP\startup_gd32f405.s

EXTI3_IRQHandler 0000001A

Symbol: EXTI3_IRQHandler
   Definitions
      At line 297 in file ..\STARTUP\startup_gd32f405.s
   Uses
      At line 70 in file ..\STARTUP\startup_gd32f405.s
      At line 217 in file ..\STARTUP\startup_gd32f405.s

EXTI4_IRQHandler 0000001A

Symbol: EXTI4_IRQHandler
   Definitions
      At line 298 in file ..\STARTUP\startup_gd32f405.s
   Uses
      At line 71 in file ..\STARTUP\startup_gd32f405.s
      At line 218 in file ..\STARTUP\startup_gd32f405.s

EXTI5_9_IRQHandler 0000001A

Symbol: EXTI5_9_IRQHandler
   Definitions
      At line 311 in file ..\STARTUP\startup_gd32f405.s
   Uses
      At line 84 in file ..\STARTUP\startup_gd32f405.s
      At line 231 in file ..\STARTUP\startup_gd32f405.s

FMC_IRQHandler 0000001A

Symbol: FMC_IRQHandler
   Definitions
      At line 292 in file ..\STARTUP\startup_gd32f405.s
   Uses
      At line 65 in file ..\STARTUP\startup_gd32f405.s
      At line 212 in file ..\STARTUP\startup_gd32f405.s

FPU_IRQHandler 0000001A

Symbol: FPU_IRQHandler
   Definitions
      At line 365 in file ..\STARTUP\startup_gd32f405.s
   Uses
      At line 142 in file ..\STARTUP\startup_gd32f405.s
      At line 285 in file ..\STARTUP\startup_gd32f405.s

HardFault_Handler 0000000A

Symbol: HardFault_Handler
   Definitions
      At line 167 in file ..\STARTUP\startup_gd32f405.s



ARM Macro Assembler    Page 7 Alphabetic symbol ordering
Relocatable symbols

   Uses
      At line 46 in file ..\STARTUP\startup_gd32f405.s
      At line 168 in file ..\STARTUP\startup_gd32f405.s

I2C0_ER_IRQHandler 0000001A

Symbol: I2C0_ER_IRQHandler
   Definitions
      At line 320 in file ..\STARTUP\startup_gd32f405.s
   Uses
      At line 93 in file ..\STARTUP\startup_gd32f405.s
      At line 240 in file ..\STARTUP\startup_gd32f405.s

I2C0_EV_IRQHandler 0000001A

Symbol: I2C0_EV_IRQHandler
   Definitions
      At line 319 in file ..\STARTUP\startup_gd32f405.s
   Uses
      At line 92 in file ..\STARTUP\startup_gd32f405.s
      At line 239 in file ..\STARTUP\startup_gd32f405.s

I2C1_ER_IRQHandler 0000001A

Symbol: I2C1_ER_IRQHandler
   Definitions
      At line 322 in file ..\STARTUP\startup_gd32f405.s
   Uses
      At line 95 in file ..\STARTUP\startup_gd32f405.s
      At line 242 in file ..\STARTUP\startup_gd32f405.s

I2C1_EV_IRQHandler 0000001A

Symbol: I2C1_EV_IRQHandler
   Definitions
      At line 321 in file ..\STARTUP\startup_gd32f405.s
   Uses
      At line 94 in file ..\STARTUP\startup_gd32f405.s
      At line 241 in file ..\STARTUP\startup_gd32f405.s

I2C2_ER_IRQHandler 0000001A

Symbol: I2C2_ER_IRQHandler
   Definitions
      At line 358 in file ..\STARTUP\startup_gd32f405.s
   Uses
      At line 134 in file ..\STARTUP\startup_gd32f405.s
      At line 278 in file ..\STARTUP\startup_gd32f405.s

I2C2_EV_IRQHandler 0000001A

Symbol: I2C2_EV_IRQHandler
   Definitions
      At line 357 in file ..\STARTUP\startup_gd32f405.s
   Uses
      At line 133 in file ..\STARTUP\startup_gd32f405.s
      At line 277 in file ..\STARTUP\startup_gd32f405.s

LVD_IRQHandler 0000001A



ARM Macro Assembler    Page 8 Alphabetic symbol ordering
Relocatable symbols


Symbol: LVD_IRQHandler
   Definitions
      At line 289 in file ..\STARTUP\startup_gd32f405.s
   Uses
      At line 62 in file ..\STARTUP\startup_gd32f405.s
      At line 209 in file ..\STARTUP\startup_gd32f405.s

MemManage_Handler 0000000C

Symbol: MemManage_Handler
   Definitions
      At line 172 in file ..\STARTUP\startup_gd32f405.s
   Uses
      At line 47 in file ..\STARTUP\startup_gd32f405.s
      At line 173 in file ..\STARTUP\startup_gd32f405.s

NMI_Handler 00000008

Symbol: NMI_Handler
   Definitions
      At line 162 in file ..\STARTUP\startup_gd32f405.s
   Uses
      At line 45 in file ..\STARTUP\startup_gd32f405.s
      At line 163 in file ..\STARTUP\startup_gd32f405.s

PendSV_Handler 00000016

Symbol: PendSV_Handler
   Definitions
      At line 196 in file ..\STARTUP\startup_gd32f405.s
   Uses
      At line 57 in file ..\STARTUP\startup_gd32f405.s
      At line 197 in file ..\STARTUP\startup_gd32f405.s

RCU_CTC_IRQHandler 0000001A

Symbol: RCU_CTC_IRQHandler
   Definitions
      At line 293 in file ..\STARTUP\startup_gd32f405.s
   Uses
      At line 66 in file ..\STARTUP\startup_gd32f405.s
      At line 213 in file ..\STARTUP\startup_gd32f405.s

RTC_Alarm_IRQHandler 0000001A

Symbol: RTC_Alarm_IRQHandler
   Definitions
      At line 329 in file ..\STARTUP\startup_gd32f405.s
   Uses
      At line 102 in file ..\STARTUP\startup_gd32f405.s
      At line 249 in file ..\STARTUP\startup_gd32f405.s

RTC_WKUP_IRQHandler 0000001A

Symbol: RTC_WKUP_IRQHandler
   Definitions
      At line 291 in file ..\STARTUP\startup_gd32f405.s
   Uses



ARM Macro Assembler    Page 9 Alphabetic symbol ordering
Relocatable symbols

      At line 64 in file ..\STARTUP\startup_gd32f405.s
      At line 211 in file ..\STARTUP\startup_gd32f405.s

Reset_Handler 00000000

Symbol: Reset_Handler
   Definitions
      At line 151 in file ..\STARTUP\startup_gd32f405.s
   Uses
      At line 44 in file ..\STARTUP\startup_gd32f405.s
      At line 152 in file ..\STARTUP\startup_gd32f405.s

SDIO_IRQHandler 0000001A

Symbol: SDIO_IRQHandler
   Definitions
      At line 336 in file ..\STARTUP\startup_gd32f405.s
   Uses
      At line 110 in file ..\STARTUP\startup_gd32f405.s
      At line 256 in file ..\STARTUP\startup_gd32f405.s

SPI0_IRQHandler 0000001A

Symbol: SPI0_IRQHandler
   Definitions
      At line 323 in file ..\STARTUP\startup_gd32f405.s
   Uses
      At line 96 in file ..\STARTUP\startup_gd32f405.s
      At line 243 in file ..\STARTUP\startup_gd32f405.s

SPI1_IRQHandler 0000001A

Symbol: SPI1_IRQHandler
   Definitions
      At line 324 in file ..\STARTUP\startup_gd32f405.s
   Uses
      At line 97 in file ..\STARTUP\startup_gd32f405.s
      At line 244 in file ..\STARTUP\startup_gd32f405.s

SPI2_IRQHandler 0000001A

Symbol: SPI2_IRQHandler
   Definitions
      At line 338 in file ..\STARTUP\startup_gd32f405.s
   Uses
      At line 112 in file ..\STARTUP\startup_gd32f405.s
      At line 258 in file ..\STARTUP\startup_gd32f405.s

SVC_Handler 00000012

Symbol: SVC_Handler
   Definitions
      At line 186 in file ..\STARTUP\startup_gd32f405.s
   Uses
      At line 54 in file ..\STARTUP\startup_gd32f405.s
      At line 187 in file ..\STARTUP\startup_gd32f405.s

SysTick_Handler 00000018




ARM Macro Assembler    Page 10 Alphabetic symbol ordering
Relocatable symbols

Symbol: SysTick_Handler
   Definitions
      At line 201 in file ..\STARTUP\startup_gd32f405.s
   Uses
      At line 58 in file ..\STARTUP\startup_gd32f405.s
      At line 202 in file ..\STARTUP\startup_gd32f405.s

TAMPER_STAMP_IRQHandler 0000001A

Symbol: TAMPER_STAMP_IRQHandler
   Definitions
      At line 290 in file ..\STARTUP\startup_gd32f405.s
   Uses
      At line 63 in file ..\STARTUP\startup_gd32f405.s
      At line 210 in file ..\STARTUP\startup_gd32f405.s

TIMER0_BRK_TIMER8_IRQHandler 0000001A

Symbol: TIMER0_BRK_TIMER8_IRQHandler
   Definitions
      At line 312 in file ..\STARTUP\startup_gd32f405.s
   Uses
      At line 85 in file ..\STARTUP\startup_gd32f405.s
      At line 232 in file ..\STARTUP\startup_gd32f405.s

TIMER0_CC_IRQHandler 0000001A

Symbol: TIMER0_CC_IRQHandler
   Definitions
      At line 315 in file ..\STARTUP\startup_gd32f405.s
   Uses
      At line 88 in file ..\STARTUP\startup_gd32f405.s
      At line 235 in file ..\STARTUP\startup_gd32f405.s

TIMER0_TRG_CMT_TIMER10_IRQHandler 0000001A

Symbol: TIMER0_TRG_CMT_TIMER10_IRQHandler
   Definitions
      At line 314 in file ..\STARTUP\startup_gd32f405.s
   Uses
      At line 87 in file ..\STARTUP\startup_gd32f405.s
      At line 234 in file ..\STARTUP\startup_gd32f405.s

TIMER0_UP_TIMER9_IRQHandler 0000001A

Symbol: TIMER0_UP_TIMER9_IRQHandler
   Definitions
      At line 313 in file ..\STARTUP\startup_gd32f405.s
   Uses
      At line 86 in file ..\STARTUP\startup_gd32f405.s
      At line 233 in file ..\STARTUP\startup_gd32f405.s

TIMER1_IRQHandler 0000001A

Symbol: TIMER1_IRQHandler
   Definitions
      At line 316 in file ..\STARTUP\startup_gd32f405.s
   Uses
      At line 89 in file ..\STARTUP\startup_gd32f405.s



ARM Macro Assembler    Page 11 Alphabetic symbol ordering
Relocatable symbols

      At line 236 in file ..\STARTUP\startup_gd32f405.s

TIMER2_IRQHandler 0000001A

Symbol: TIMER2_IRQHandler
   Definitions
      At line 317 in file ..\STARTUP\startup_gd32f405.s
   Uses
      At line 90 in file ..\STARTUP\startup_gd32f405.s
      At line 237 in file ..\STARTUP\startup_gd32f405.s

TIMER3_IRQHandler 0000001A

Symbol: TIMER3_IRQHandler
   Definitions
      At line 318 in file ..\STARTUP\startup_gd32f405.s
   Uses
      At line 91 in file ..\STARTUP\startup_gd32f405.s
      At line 238 in file ..\STARTUP\startup_gd32f405.s

TIMER4_IRQHandler 0000001A

Symbol: TIMER4_IRQHandler
   Definitions
      At line 337 in file ..\STARTUP\startup_gd32f405.s
   Uses
      At line 111 in file ..\STARTUP\startup_gd32f405.s
      At line 257 in file ..\STARTUP\startup_gd32f405.s

TIMER5_DAC_IRQHandler 0000001A

Symbol: TIMER5_DAC_IRQHandler
   Definitions
      At line 341 in file ..\STARTUP\startup_gd32f405.s
   Uses
      At line 115 in file ..\STARTUP\startup_gd32f405.s
      At line 261 in file ..\STARTUP\startup_gd32f405.s

TIMER6_IRQHandler 0000001A

Symbol: TIMER6_IRQHandler
   Definitions
      At line 342 in file ..\STARTUP\startup_gd32f405.s
   Uses
      At line 116 in file ..\STARTUP\startup_gd32f405.s
      At line 262 in file ..\STARTUP\startup_gd32f405.s

TIMER7_BRK_TIMER11_IRQHandler 0000001A

Symbol: TIMER7_BRK_TIMER11_IRQHandler
   Definitions
      At line 331 in file ..\STARTUP\startup_gd32f405.s
   Uses
      At line 104 in file ..\STARTUP\startup_gd32f405.s
      At line 251 in file ..\STARTUP\startup_gd32f405.s

TIMER7_CC_IRQHandler 0000001A

Symbol: TIMER7_CC_IRQHandler



ARM Macro Assembler    Page 12 Alphabetic symbol ordering
Relocatable symbols

   Definitions
      At line 334 in file ..\STARTUP\startup_gd32f405.s
   Uses
      At line 107 in file ..\STARTUP\startup_gd32f405.s
      At line 254 in file ..\STARTUP\startup_gd32f405.s

TIMER7_TRG_CMT_TIMER13_IRQHandler 0000001A

Symbol: TIMER7_TRG_CMT_TIMER13_IRQHandler
   Definitions
      At line 333 in file ..\STARTUP\startup_gd32f405.s
   Uses
      At line 106 in file ..\STARTUP\startup_gd32f405.s
      At line 253 in file ..\STARTUP\startup_gd32f405.s

TIMER7_UP_TIMER12_IRQHandler 0000001A

Symbol: TIMER7_UP_TIMER12_IRQHandler
   Definitions
      At line 332 in file ..\STARTUP\startup_gd32f405.s
   Uses
      At line 105 in file ..\STARTUP\startup_gd32f405.s
      At line 252 in file ..\STARTUP\startup_gd32f405.s

TRNG_IRQHandler 0000001A

Symbol: TRNG_IRQHandler
   Definitions
      At line 364 in file ..\STARTUP\startup_gd32f405.s
   Uses
      At line 141 in file ..\STARTUP\startup_gd32f405.s
      At line 284 in file ..\STARTUP\startup_gd32f405.s

UART3_IRQHandler 0000001A

Symbol: UART3_IRQHandler
   Definitions
      At line 339 in file ..\STARTUP\startup_gd32f405.s
   Uses
      At line 113 in file ..\STARTUP\startup_gd32f405.s
      At line 259 in file ..\STARTUP\startup_gd32f405.s

UART4_IRQHandler 0000001A

Symbol: UART4_IRQHandler
   Definitions
      At line 340 in file ..\STARTUP\startup_gd32f405.s
   Uses
      At line 114 in file ..\STARTUP\startup_gd32f405.s
      At line 260 in file ..\STARTUP\startup_gd32f405.s

USART0_IRQHandler 0000001A

Symbol: USART0_IRQHandler
   Definitions
      At line 325 in file ..\STARTUP\startup_gd32f405.s
   Uses
      At line 98 in file ..\STARTUP\startup_gd32f405.s
      At line 245 in file ..\STARTUP\startup_gd32f405.s



ARM Macro Assembler    Page 13 Alphabetic symbol ordering
Relocatable symbols


USART1_IRQHandler 0000001A

Symbol: USART1_IRQHandler
   Definitions
      At line 326 in file ..\STARTUP\startup_gd32f405.s
   Uses
      At line 99 in file ..\STARTUP\startup_gd32f405.s
      At line 246 in file ..\STARTUP\startup_gd32f405.s

USART2_IRQHandler 0000001A

Symbol: USART2_IRQHandler
   Definitions
      At line 327 in file ..\STARTUP\startup_gd32f405.s
   Uses
      At line 100 in file ..\STARTUP\startup_gd32f405.s
      At line 247 in file ..\STARTUP\startup_gd32f405.s

USART5_IRQHandler 0000001A

Symbol: USART5_IRQHandler
   Definitions
      At line 356 in file ..\STARTUP\startup_gd32f405.s
   Uses
      At line 132 in file ..\STARTUP\startup_gd32f405.s
      At line 276 in file ..\STARTUP\startup_gd32f405.s

USBFS_IRQHandler 0000001A

Symbol: USBFS_IRQHandler
   Definitions
      At line 352 in file ..\STARTUP\startup_gd32f405.s
   Uses
      At line 128 in file ..\STARTUP\startup_gd32f405.s
      At line 272 in file ..\STARTUP\startup_gd32f405.s

USBFS_WKUP_IRQHandler 0000001A

Symbol: USBFS_WKUP_IRQHandler
   Definitions
      At line 330 in file ..\STARTUP\startup_gd32f405.s
   Uses
      At line 103 in file ..\STARTUP\startup_gd32f405.s
      At line 250 in file ..\STARTUP\startup_gd32f405.s

USBHS_EP1_In_IRQHandler 0000001A

Symbol: USBHS_EP1_In_IRQHandler
   Definitions
      At line 360 in file ..\STARTUP\startup_gd32f405.s
   Uses
      At line 136 in file ..\STARTUP\startup_gd32f405.s
      At line 280 in file ..\STARTUP\startup_gd32f405.s

USBHS_EP1_Out_IRQHandler 0000001A

Symbol: USBHS_EP1_Out_IRQHandler
   Definitions



ARM Macro Assembler    Page 14 Alphabetic symbol ordering
Relocatable symbols

      At line 359 in file ..\STARTUP\startup_gd32f405.s
   Uses
      At line 135 in file ..\STARTUP\startup_gd32f405.s
      At line 279 in file ..\STARTUP\startup_gd32f405.s

USBHS_IRQHandler 0000001A

Symbol: USBHS_IRQHandler
   Definitions
      At line 362 in file ..\STARTUP\startup_gd32f405.s
   Uses
      At line 138 in file ..\STARTUP\startup_gd32f405.s
      At line 282 in file ..\STARTUP\startup_gd32f405.s

USBHS_WKUP_IRQHandler 0000001A

Symbol: USBHS_WKUP_IRQHandler
   Definitions
      At line 361 in file ..\STARTUP\startup_gd32f405.s
   Uses
      At line 137 in file ..\STARTUP\startup_gd32f405.s
      At line 281 in file ..\STARTUP\startup_gd32f405.s

UsageFault_Handler 00000010

Symbol: UsageFault_Handler
   Definitions
      At line 182 in file ..\STARTUP\startup_gd32f405.s
   Uses
      At line 49 in file ..\STARTUP\startup_gd32f405.s
      At line 183 in file ..\STARTUP\startup_gd32f405.s

WWDGT_IRQHandler 0000001A

Symbol: WWDGT_IRQHandler
   Definitions
      At line 288 in file ..\STARTUP\startup_gd32f405.s
   Uses
      At line 61 in file ..\STARTUP\startup_gd32f405.s
      At line 208 in file ..\STARTUP\startup_gd32f405.s

90 symbols



ARM Macro Assembler    Page 1 Alphabetic symbol ordering
Absolute symbols

Heap_Size 00000400

Symbol: Heap_Size
   Definitions
      At line 27 in file ..\STARTUP\startup_gd32f405.s
   Uses
      At line 31 in file ..\STARTUP\startup_gd32f405.s
Comment: Heap_Size used once
Stack_Size 00000400

Symbol: Stack_Size
   Definitions
      At line 16 in file ..\STARTUP\startup_gd32f405.s
   Uses
      At line 19 in file ..\STARTUP\startup_gd32f405.s
Comment: Stack_Size used once
__Vectors_Size 00000188

Symbol: __Vectors_Size
   Definitions
      At line 146 in file ..\STARTUP\startup_gd32f405.s
   Uses
      At line 41 in file ..\STARTUP\startup_gd32f405.s
Comment: __Vectors_Size used once
3 symbols



ARM Macro Assembler    Page 1 Alphabetic symbol ordering
External symbols

SystemInit 00000000

Symbol: SystemInit
   Definitions
      At line 153 in file ..\STARTUP\startup_gd32f405.s
   Uses
      At line 155 in file ..\STARTUP\startup_gd32f405.s
Comment: SystemInit used once
__main 00000000

Symbol: __main
   Definitions
      At line 154 in file ..\STARTUP\startup_gd32f405.s
   Uses
      At line 157 in file ..\STARTUP\startup_gd32f405.s
Comment: __main used once
2 symbols
442 symbols in table
